:020000040800F2
:1000000000500020090800080D0400080F04000833
:100010001104000813040008150400080000000083
:1000200000000000000000000000000017040008AD
:1000300019040008000000001B0400081D0400084B
:10004000510800085108000851080008510800082C
:10005000510800085108000851080008510800081C
:10006000510800082504000851080008510800083C
:100070003104000851080008510800085108000820
:1000800051080008510800085108000851080008EC
:1000900041040008510800085108000851080008F0
:1000A00051080008510800085108000851080008CC
:1000B00051080008510800085104000851080008C0
:1000C00051080008510800085108000851080008AC
:1000D0005108000861040008510800085108000890
:1000E00051080008510800085108000800000000ED
:1000F0000000000000000000000000000000000000
:0C01000000000000000000005FF808F1A3
:10010C0010B5054C237833B9044B13B10448AFF345
:10011C0000800123237010BD5C0100200000000052
:10012C005C39000808B5034B1BB103490348AFF316
:10013C00008008BD00000000600100205C39000850
:10014C0008B50D480D4B0360092343600023836001
:10015C00C3604FF480320261436103764376837649
:10016C000122C2760377437700F0CCFB00B908BDBF
:10017C0000F0C6F8FBE700BF7801002000640040E7
:10018C0010B586B000230293039304930593026881
:10019C001A4B9A4201D006B010BD03F5D633DA697A
:1001AC0042F00072DA61DA6902F000720092009A91
:1001BC009A6942F004029A619B6903F0040301936B
:1001CC00019B4FF4006302930D4C02A9204601F0F1
:1001DC0071F94FF480530293022303930323059385
:1001EC0002A9204601F066F900221146142000F005
:1001FC0099FF142000F0A6FFCDE700BF006400407B
:10020C000008014000B583B00A4B5A6942F0010264
:10021C005A615B6903F001030193019B00221146B3
:10022C000C2000F07FFF0C2000F08CFF03B05DF879
:10023C0004FB00BF001002402DE9F04188B00024FF
:10024C000494059406940794294B9A6942F0100281
:10025C009A619A6902F010020192019A9A6942F02D
:10026C0020029A619A6902F020020292029A9A691B
:10027C0042F004029A619B6903F004030393039B0D
:10028C00DFF8708022464FF40051404601F020FA0E
:10029C00194D2246C021284601F01AFA4FF400539A
:1002AC0004930126059606940227079704A9404655
:1002BC0001F000F908230493104B0593069604A94A
:1002CC00284601F0F7F8C023049305960694079787
:1002DC0004A9284601F0EEF822462146092000F038
:1002EC0021FF092000F02EFF08B0BDE8F08100BF0F
:1002FC0000100240001001400008014000002110D5
:10030C0072B6FEE700B591B02822002106A803F0D2
:10031C008DFA002301930293039304930593012216
:10032C0006924FF4803307930A9202220D920E9399
:10033C004FF4E0130F9306A801F0FEF980B90F23D8
:10034C00019302210291002303934FF480620492E3
:10035C00059301A801F022FC20B911B05DF804FB53
:10036C00FFF7CEFFFFF7CCFF08B500F093FAFFF7CD
:10037C00C9FFFFF761FFFFF745FF00F06FF900F0D1
:10038C00ABF8FFF7DDFE00F0DBF900F06DF8094883
:10039C0001F0B8FD084801F087FD02F08FFE0A203D
:1003AC0000F09CFA02F06AFE03F03AF8322000F0FA
:1003BC0095FAF9E7E40100202C02002082B00E4BE4
:1003CC009A6942F001029A619A6902F00102009264
:1003DC00009ADA6942F08052DA61DB6903F08053EB
:1003EC000193019B054A536823F0E06343F00073CB
:1003FC00536002B0704700BF001002400000014083
:10040C00FEE7FEE7FEE7FEE7FEE770477047704742
:10041C0008B500F051FA08BD08B5082001F068F9DC
:10042C0008BD000008B5024800F0A2FF08BD00BFDF
:10043C00A001002008B5024800F006FD08BD00BF71
:10044C007801002008B5024801F0EBFD08BD00BFA3
:10045C00E401002008B5024802F00AFC08BD00BF08
:10046C00BC0200207047000000B587B00023029347
:10047C00039304930593009301931548154A026066
:10048C000322426083604FF6FF72C26003618023D7
:10049C00836101F0EDFE90B94FF48053029302A9F1
:1004AC000B4801F0E5FF68B90023009301936946FE
:1004BC00074802F017FA40B907B05DF804FBFFF7E4
:1004CC001FFFE9E7FFF71CFFEEE7FFF719FFF3E764
:1004DC002C0200200004004000B587B000230293DA
:1004EC00039304930593009301931548154A0260F6
:1004FC0047224260836042F20F72C26003618361E3
:10050C0001F0B6FE90B94FF48053029302A90C4847
:10051C0001F0AEFF68B900230093019369460848C7
:10052C0002F0E0F940B907B05DF804FBFFF7E8FE14
:10053C00E9E7FFF7E5FEEEE7FFF7E2FEF3E700BFC2
:10054C00E40100200008004010B584B00368294A7B
:10055C00934207D0284A93422DD0284A934235D053
:10056C0004B010BD0446264B9A6942F400629A61AD
:10057C009B6903F400630193019B2248224B0360A7
:10058C0010234360002383608023C3604FF4807387
:10059C0003614FF480634361202383614FF4005364
:1005AC00C36100F007FE18B9164B63625C62D7E7B3
:1005BC00FFF7A6FEF8E7124BDA6942F00202DA61A5
:1005CC00DB6903F002030293029BC9E70C4BDA6967
:1005DC0042F00402DA61DB6903F004030393039B2A
:1005EC00002211461E2000F09DFD1E2000F0AAFDE9
:1005FC00B6E700BF002C014000040040000800409A
:10060C0000100240A00100201C00024000B587B081
:10061C000023029303930493059302680D4B9A42B3
:10062C0002D007B05DF804FB03F564439A6942F00D
:10063C0004029A619B6903F004030193019B4FF43C
:10064C008073029302230393059302A9024800F0DE
:10065C0031FFE6E7002C01400008014010B596B0D0
:10066C0000241294139414941594109411940994D6
:10067C000A940B940C940D940E940F942022214602
:10068C0001A803F0D3F82C482C4B036002234360E1
:10069C0084601D23C36004614461846101F0E8FD42
:1006AC00002837D14FF48053129312A9224801F03D
:1006BC00DFFE002831D1204801F006FE00282FD1A2
:1006CC0000231093119310A91B4802F00BF950BB97
:1006DC006023099300220A920B920C920D920E92B7
:1006EC000F9209A9144801F049FEF8B900230193AF
:1006FC0002930393049305934FF4005206920893CC
:10070C0001A90D4802F024F998B90B48FFF77EFFB8
:10071C0016B010BDFFF7F4FDC4E7FFF7F1FDCAE713
:10072C00FFF7EEFDCCE7FFF7EBFDD1E7FFF7E8FDB8
:10073C00DCE7FFF7E5FDE8E774020020002C014040
:10074C0008B50A480A4B03604FF4E13343600023B9
:10075C008360C36003610C2242618361C36102F058
:10076C00CBF900B908BDFFF7CBFDFBE7BC020020BD
:10077C000038014030B587B00023029303930493F3
:10078C00059302681B4B9A4201D007B030BD03F5AC
:10079C0058439A6942F480429A619A6902F4804201
:1007AC000092009A9A6942F004029A619B6903F0E4
:1007BC0004030193019B4FF40073029302230393F0
:1007CC00032305930C4D02A9284600F073FE4FF449
:1007DC008063029300240394049402A9284600F039
:1007EC0069FE22462146252000F09CFC252000F0C5
:1007FC00A9FCCAE70038014000080140FFF732FEAF
:10080C000B480C490C4A002302E0D458C450043362
:10081C00C4188C42F9D3094A094C002301E0136037
:10082C000432A242FBD303F009F8FFF79DFD704799
:10083C00000000205C010020AC3A00085C010020A4
:10084C00D4120020FEE7000010B504460E4B1A78B7
:10085C004FF47A73B3FBF2F30C4A1068B0FBF3F06D
:10086C0000F07EFC68B90F2C01D901200AE00022AF
:10087C0021464FF0FF3000F055FC054B1C6000206A
:10088C0000E0012010BD00BF04000020000000208B
:10089C000800002008B5074A136843F010031360E2
:1008AC00032000F02DFC0F20FFF7CEFFFFF786FD95
:1008BC00002008BD00200240034A1168034B1B783E
:1008CC000B441360704700BF040300200400002099
:1008DC00014B1868704700BF0403002038B504466C
:1008EC00FFF7F6FF0546B4F1FF3F02D0044B1B782F
:1008FC001C44FFF7EDFF401BA042FAD338BD00BFEC
:10090C0004000020002800F0A18038B5044690F8BF
:10091C002030D3B12268136843F001031360FFF752
:10092C00D7FF054623685A6812F0010F10D1FFF764
:10093C00CFFF401B0A28F5D9636A43F40033636286
:10094C00052384F82030012038BDFFF719FCE1E7BE
:10095C001A6822F002021A60FFF7BAFF05462368F4
:10096C005A6812F0020F0DD0FFF7B2FF401B0A2895
:10097C00F5D9636A43F400336362052384F82030AD
:10098C000120E1E7227E012A3DD01A6822F0800284
:10099C001A60637E012B3BD02268136823F040035E
:1009AC001360A37E012B39D02268136823F0200337
:1009BC001360E37E012B37D02268136843F01003D9
:1009CC001360237F012B35D02268136823F00803B2
:1009DC001360637F012B33D02268136823F0040368
:1009EC001360A368E26813432269134362691343DB
:1009FC006268013A21681343CB61002060620123D5
:100A0C0084F82030A0E71A6842F080021A60C0E730
:100A1C002268136843F040031360C2E7226813682E
:100A2C0043F020031360C4E72268136823F010031B
:100A3C001360C6E72268136843F008031360C8E725
:100A4C002268136843F004031360CAE7012070475F
:100A5C00026890F82030013BDBB2012B05D9436AC8
:100A6C0043F4802343620120704710B5D2F8003262
:100A7C0043F00103C2F800324B6903F01F0301205D
:100A8C0000FA03F3D2F81C026FEA030C20EA03000D
:100A9C00C2F81C02C869C0B9D2F80C020CEA0000FA
:100AAC00C2F80C028C884869D1F80CE044EA0E4478
:100ABC00483042F830400C884869D1F808E044EAE4
:100ACC000E44483002EBC0004460C86901281AD0BB
:100ADC00886988BBD2F804020CEA0000C2F8040250
:100AEC00086978BBD2F814020CEA0000C2F81402B0
:100AFC00096A01292CD0D2F8003223F00103C2F884
:100B0C000032002010BDD2F80C021843C2F80C02BF
:100B1C008C884869D1F800E044EA0E44483042F829
:100B2C0030408C894869D1F808E044EA0E444830DA
:100B3C0002EBC0004460CBE7D2F804021843C2F8C1
:100B4C000402CDE7D2F814021843C2F81402CFE71E
:100B5C00D2F81C120B43C2F81C32CCE770B5044619
:100B6C0090F82050EDB2012D06D0436A43F40023D7
:100B7C0043620125284670BD022380F820300268AC
:100B8C00136823F001031360FFF7A2FE06462368E7
:100B9C005B6813F0010F0CD0FFF79AFE831B0A2B36
:100BAC00F5D9636A43F400336362052384F820307B
:100BBC00E0E700256562DDE730B590F820C00468F9
:100BCC00A4680CF1FF3C5FFA8CFCBCF1010F62D8FD
:100BDC0014F0E05F59D0C4F3016C012404FA0CF456
:100BEC001C608B68002B3DD10D68CB68046843EA10
:100BFC0045550CF118031B01E55003680C690CF109
:100C0C00180E03EB0E135C600B7D012B35D0D179E4
:100C1C0093791B0443EA0163517943EA0123147964
:100C2C000168234301EB0C11C1F88C31D178937816
:100C3C001B0443EA0163517843EA012311780268EB
:100C4C000B4302EB0C12C2F8883102680CF1180C41
:100C5C004FEA0C1C52F80C3043F0010342F80C30F4
:100C6C0000201DE04C6843EAC403CC6823430CF11C
:100C7C001804240105682B51BFE7036803EB0E131E
:100C8C00596841F480715960C1E7436A43F4001319
:100C9C004362012004E0436A43F480234362012051
:100CAC0030BD90F820C00CF1FF3C5FFA8CFCBCF11D
:100CBC00010F00F2A58030B451B90468E46814F057
:100CCC00030F10D1436A43F40013436201207EE00A
:100CDC000468246914F0030F05D1436A43F400132C
:100CEC004362012073E0056801F11B0424012C59B7
:100CFC0004F004049460002C6BD1056801F11B0412
:100D0C0024012C59640D1460046801F11B0C4FEA8A
:100D1C000C1C54F80C4004F00204D4600468A44485
:100D2C00DCF8045015F0080F5BD00824146104683B
:100D3C0001F11B0C04EB0C146468C4F307249461DC
:100D4C00046804EB0C146468240C5461026802EB14
:100D5C000112D2F8B8211A70026802EB0112D2F813
:100D6C00B821C2F307225A70026802EB0112D2F8C2
:100D7C00B821C2F307429A70026802EB0112D2F852
:100D8C00B821120EDA70026802EB0112D2F8BC2103
:100D9C001A71026802EB0112D2F8BC21C2F30722CD
:100DAC005A71026802EB0112D2F8BC21C2F307425D
:100DBC009A71026802EB0112D2F8BC21120EDA71A0
:100DCC00C1B90268D36843F02003D360002030BC63
:100DDC007047056801F11B0424012C59E408546088
:100DEC0092E701F11B0504EB0514646804F00F0491
:100DFC0014619CE70268136943F020031361E5E773
:100E0C00436A43F4802343620120704790F82030FA
:100E1C00013BDBB2012B05D9436A43F480234362C7
:100E2C0001207047026853690B43536100207047DF
:100E3C0070477047704770477047704770477047EE
:100E4C0070477047704770472DE9F84F05460368A7
:100E5C005C69D3F804809F68D3F80CA0D3F8109089
:100E6C00D3F818B014F001063BD017F0010616D0D9
:100E7C0001229A6017F0020F08D117F0040F0CD161
:100E8C0017F0080606D04FF4805608E0FFF7D0FFA5
:100E9C00002604E0FFF7CFFF01E04FF4006617F4E3
:100EAC00807F0DD02B684FF480729A6017F4007F0E
:100EBC0040F0968017F4806F00F0968046F4005650
:100ECC0017F4803F0DD02B684FF480329A6017F4E2
:100EDC00003F40F0938017F4802F00F0938046F48D
:100EEC00004614F0080F07D01AF0100F04D046F487
:100EFC0000762B681022DA6014F0040F03D01AF07D
:100F0C00080F40F0898014F0020F05D02B68DB68C5
:100F1C0013F0030F40F0878014F0400F07D019F046
:100F2C00100F04D046F480662B6810221A6114F05E
:100F3C00200F02D019F0080F79D114F0100F04D043
:100F4C002B681B6913F0030F78D114F4003F02D007
:100F5C0018F0100F76D114F4803F02D018F0080F5F
:100F6C0077D114F4004F37D018F0040F31D014F4AB
:100F7C00807F04D01BF0010F01D046F0010614F461
:100F8C00007F04D01BF0020F01D046F0020614F4CF
:100F9C00806F04D01BF0040F01D046F0040614F44B
:100FAC00006F16D01BF0700B13D0BBF1400F66D046
:100FBC0056D8BBF1200F5CD0BBF1300F5CD0BBF12D
:100FCC00100F01D146F008062A68936923F07003CC
:100FDC0093612B6804225A60002E56D1BDE8F88F1D
:100FEC002846FFF726FF6BE717F4006F02D046F494
:100FFC00804665E72846FFF71FFF61E72846FFF7A5
:10100C0019FF6EE717F4002F02D046F4803668E71C
:10101C002846FFF712FF64E72B680822DA6028469F
:10102C00FFF70CFF6FE7284602F04EF874E72B68C9
:10103C0008221A612846FFF703FF7EE72846FFF7D0
:10104C00FEFE82E72B6810225A602846FFF7F9FE55
:10105C0081E72B6808225A602846FFF7F3FE80E7E9
:10106C00BBF1500F0ED0BBF1600FADD146F48076C2
:10107C00AAE746F01006A7E746F02006A4E746F0DC
:10108C004006A1E746F080069EE76B6A33436B622D
:10109C002846FFF7D8FEA1E7002808DB0901C9B2F2
:1010AC0000F1604000F5614080F80013704700F0DB
:1010BC000F000901C9B2014B1954704714ED00E03F
:1010CC0000B500F00700C0F1070CBCF1040F28BFFD
:1010DC004FF0040C031D062B0FD9C31E4FF0FF3E1F
:1010EC000EFA0CF021EA000199400EFA03FE22EAF6
:1010FC000E0241EA02005DF804FB0023EEE700005B
:10110C00074AD36823F4E0631B041B0C000200F4B1
:10111C00E060034343F0BF6343F40033D360704794
:10112C0000ED00E010B50446054BD868C0F3022072
:10113C00FFF7C6FF01462046FFF7AEFF10BD00BF0C
:10114C0000ED00E0002807DB00F01F02400901233E
:10115C009340024A42F82030704700BF00E100E0A3
:10116C000138B0F1807F0BD24FF0E0235861054A73
:10117C00F02182F823100020986107221A61704731
:10118C000120704700ED00E030B40124056CAC4048
:10119C00C56B6C60046863604368102B05D00368F2
:1011AC0099600368DA6030BC704703689A60036822
:1011BC00D960F8E750B310B402460168144B0B44E5
:1011CC001448A0FB03031B099B001364124BD3634D
:1011DC00022382F8213008686FF30D10536894686D
:1011EC002343D468234314692343546923439469E8
:1011FC002343D469234303430B60002090630123F2
:10120C0082F8213082F8200010BC70470120704712
:10121C00F8FFFDBFCDCCCCCC0000024038B5044665
:10122C0090F82000012832D0012084F8200094F896
:10123C002100C0B2012804D0002384F82030022001
:10124C0038BD022084F821000020A063256828689E
:10125C0020F0010028602046FFF796FFE36A5BB19F
:10126C002268136843F00E0313602268136843F07E
:10127C00010313600020E3E72268136823F00403E2
:10128C0013602268136843F00A031360EDE7022031
:10129C00D6E7034690F82120D2B2022A06D00422C7
:1012AC008263002280F820200120704701680A68C0
:1012BC0022F00E020A6001680A6822F001020A603C
:1012CC00026CC06B012101FA02F2426083F821101A
:1012DC00002083F82000704708B590F82130DBB26D
:1012EC00022B03D004238363012008BD026813681A
:1012FC0023F00E0313600268136823F001031360DC
:10130C000368194A934214D0143293421FD01432FA
:10131C0093421ED0143293421ED0143293421ED0EC
:10132C001432934202D04FF0807203E04FF48012DB
:10133C0000E001220D4B5A60012380F8213000237C
:10134C0080F82030436B6BB198470020CDE710221A
:10135C00F0E74FF48072EDE74FF48052EAE74FF478
:10136C008032E7E70020C0E708000240000002409E
:10137C0038B5C36B1A6804682568016C04238B406C
:10138C00134235D015F0040F32D0236813F0200F20
:10139C0003D1236823F0040323600368434A934278
:1013AC0014D01432934218D01432934217D0143202
:1013BC00934217D01432934217D01432934202D076
:1013CC004FF0806203E04FF4800200E00422384BBF
:1013DC005A60C36A03B1984738BD4022F7E74FF40F
:1013EC008062F4E74FF48042F1E74FF48022EEE79D
:1013FC0002238B4013423CD015F0020F39D02368E6
:10140C0013F0200F06D1236823F00A032360012375
:10141C0080F821300368254A934214D01432934249
:10142C001CD0143293421BD0143293421BD0143272
:10143C0093421BD01432934202D04FF0007203E05F
:10144C004FF4001200E00222194B5A60002380F87E
:10145C002030836A002BBFD09847BDE72022F3E7EA
:10146C004FF40072F0E74FF40052EDE74FF4003206
:10147C00EAE708238B401342AED015F0080FABD02F
:10148C00236823F00E032360026CC16B012303FA63
:10149C0002F24A60836380F82130002380F8203008
:1014AC00036B002B98D0984796E700BF08000240CA
:1014BC000000024070B582B00024A446A1E07E4D2D
:1014CC00AB4214D00CD8A5F58015AB420FD005F566
:1014DC007025AB420BD0A5F58015AB4210D106E0C0
:1014EC00764DAB4203D005F58035AB4208D18B6805
:1014FC00002B50D0012B49D04261082400E0CC686D
:10150C00BEF1FF0F49D806464FEA8C0233680F250F
:10151C00954023EA050304FA02F2134333604B6847
:10152C0013F0805F6BD0664B9A6942F001029A61AE
:10153C009B6903F001030193019B4FEA9C02951CEC
:10154C00604B53F825600CF00305AD000F23AB4046
:10155C0026EA03065C4B984226D003F5806398423A
:10156C0000F08C8003F58063984200F0898003F5CD
:10157C008063984216D0042317E0CC680434BFE78C
:10158C00CC680834BCE7CC680C34B9E70261082499
:10159C00B6E70024B4E70424B2E7061DACF1080258
:1015AC009200B3E7032300E00023AB403343023245
:1015BC00444D45F822304B6813F4801F62D0434AE7
:1015CC00936843EA0E0393604B6813F4001F5FD0DB
:1015DC003E4AD36843EA0E03D3604B6813F4003FD2
:1015EC005CD03A4A536843EA0E0353604B6813F4D9
:1015FC00803F59D0354A136843EA0E0313600CF14F
:10160C00010C0B6833FA0CF254D0012202FA0CF2E2
:10161C0003EA020E32EA0303F1D14B68122B3FF6B8
:10162C004EAF122B3FF66CAF01A555F823F000BF5F
:10163C00FB1400080B1500088D1500089F150008F9
:10164C000D1500080D1500080D1500080D150008E6
:10165C000D1500080D1500080D1500080D150008D6
:10166C000D1500080D1500080D1500080D150008C6
:10167C000D1500088715000893150008012394E741
:10168C00022392E7114A936823EA0E0393609BE7C7
:10169C000E4AD36823EA0E03D3609EE70B4A5368C5
:1016AC0023EA0E035360A1E7084A136823EA0E03EA
:1016BC001360A4E702B070BD0000221000003110CE
:1016CC0000100240000001400008014000040140ED
:1016DC000AB101617047090401617047C36801EAEE
:1016EC00030221EA030141EA02410161704770479C
:1016FC0008B5054B5B69034200D108BD024B58612C
:10170C00FFF7F5FFF9E700BF0004014082B0084B7A
:10171C001B68084AA2FB03235B0A00FB03F301933B
:10172C0000BF019B5A1E0192002BF9D102B07047E9
:10173C0000000020D34D6210002800F0F18170B53C
:10174C0082B00446036813F0010F2CD0994B5B68F0
:10175C0003F00C03042B1DD0964B5B6803F00C03B9
:10176C00082B12D06368B3F5803F41D0002B55D1C4
:10177C0003F1804303F504331A6822F480321A60B3
:10178C001A6822F480221A6037E08A4B5B6813F4E3
:10179C00803FE7D0874B1B6813F4003F03D063688E
:1017AC00002B00F0BF81236813F0020F75D0814B22
:1017BC005B6813F00C0F5FD07E4B5B6803F00C037F
:1017CC00082B54D02369002B00F08A807A4B01221D
:1017DC001A60FFF77DF80546764B1B6813F0020F75
:1017EC0075D1FFF775F8401B0228F5D903209EE14F
:1017FC00704A136843F480331360636843B3FFF794
:10180C0067F805466B4B1B6813F4003FCBD1FFF711
:10181C005FF8401B6428F5D9032088E1B3F5A02FAD
:10182C0009D0644B1A6822F480321A601A6822F4C8
:10183C0080221A60E1E703F18043A3F53C331A6878
:10184C0042F480221A601A6842F480321A60D4E79B
:10185C00FFF73EF80546574B1B6813F4003FA2D028
:10186C00FFF736F8401B6428F5D903205FE1514B94
:10187C005B6813F4803FA5D14E4B1B6813F0020F2D
:10188C0003D02369012B40F04F814A4A136823F09F
:10189C00F803616943EAC1031360236813F0080F6E
:1018AC0033D0A369002B5CD0434B0122C3F88024B6
:1018BC00FFF70EF805463F4B5B6A13F0020F21D180
:1018CC00FFF706F8401B0228F5D903202FE1394A0F
:1018DC00136823F0F803616943EAC1031360DCE782
:1018EC00354B00221A60FEF7F3FF0546314B1B689F
:1018FC0013F0020FD1D0FEF7EBFF401B0228F5D9F5
:10190C00032014E10120FFF701FF236813F0040FFB
:10191C0000F09680274BDB6913F0805F34D1254BA8
:10192C00DA6942F08052DA61DB6903F0805301938B
:10193C00019B0125214B1B6813F4807F26D0E368A3
:10194C00012B3DD0002B53D103F1804303F504331D
:10195C001A6A22F001021A621A6A22F004021A624E
:10196C0033E0154B0022C3F88024FEF7B1FF054687
:10197C00104B5B6A13F0020FC7D0FEF7A9FF401B98
:10198C000228F5D90320D2E00025D3E70B4A1368CF
:10199C0043F480731360FEF79BFF0646074B1B68EE
:1019AC0013F4807FCBD1FEF793FF801B6428F5D90D
:1019BC000320BCE0001002400000424200700040D6
:1019CC005F4A136A43F001031362E36833B3FEF713
:1019DC007FFF06465A4B1B6A13F0020F2FD1FEF7FE
:1019EC0077FF801B41F288339842F3D903209EE0A5
:1019FC00052B09D0524B1A6A22F001021A621A6A9C
:101A0C0022F004021A62E0E74D4B1A6A42F004021B
:101A1C001A621A6A42F001021A62D6E7FEF758FF00
:101A2C000646474B1B6A13F0020F08D0FEF750FF17
:101A3C00801B41F288339842F3D9032077E0E5B953
:101A4C00E369002B72D03E4A526802F00C02082A5D
:101A5C0056D0022B17D03B4B00221A66FEF738FFEC
:101A6C000446374B1B6813F0007F47D0FEF730FF5E
:101A7C00001B0228F5D9032059E0314AD36923F021
:101A8C008053D361DCE72F4B00221A66FEF720FF50
:101A9C0005462B4B1B6813F0007F06D0FEF718FF92
:101AAC00401B0228F5D9032041E0236AB3F5803F9F
:101ABC001AD023494B6823F47413226A606A0243D8
:101ACC0013434B601F4B01221A66FEF701FF0446BD
:101ADC001B4B1B6813F0007F0ED1FEF7F9FE001BA9
:101AEC000228F5D9032022E0154A536823F4003369
:101AFC00A1680B435360DCE7002018E0002016E0DF
:101B0C00012B16D00E4B5B6803F48031226A914294
:101B1C0011D103F47013626A93420ED1002006E0D7
:101B2C0001207047012002E0012000E0002002B0FB
:101B3C0070BD0120FBE70120F9E70120F7E700BFAA
:101B4C0000100240000042420F4B5B6803F00C0295
:101B5C00082A01D00D487047C3F383420C49885CB6
:101B6C0013F4803F0BD0084B5B68C3F34043094A26
:101B7C00D35C064A02FB00F0B0FBF3F07047064B57
:101B8C0003FB00F0704700BF0010024000127A0007
:101B9C00903900088C39000800093D00002800F03D
:101BAC00A08070B50D460446524B1B6803F007032A
:101BBC008B420BD24F4A136823F007030B4313607D
:101BCC00136803F007038B4240F08D80236813F0F9
:101BDC00020F17D013F0040F04D0474A536843F494
:101BEC00E0635360236813F0080F04D0424A536833
:101BFC0043F460535360404A536823F0F003A168E8
:101C0C000B435360236813F0010F31D06368012B31
:101C1C0020D0022B25D0384A126812F0020F64D063
:101C2C0035494A6822F0030213434B60FEF750FE1D
:101C3C000646314B5B6803F00C036268B3EB820F12
:101C4C0016D0FEF745FE801B41F288339842F0D93E
:101C5C00032045E0284A126812F4003FE0D101202D
:101C6C003EE0254A126812F0007FD9D1012037E0FE
:101C7C00204B1B6803F00703AB420AD91D4A1368BB
:101C8C0023F007032B431360136803F00703AB42E5
:101C9C002DD1236813F0040F06D0174A536823F490
:101CAC00E063E1680B435360236813F0080F07D01F
:101CBC00114A536823F46053216943EAC10353600A
:101CCC00FFF742FF0C4B5B68C3F303130B4AD35C67
:101CDC00D8400B4B18600B4B1868FEF7B5FD002075
:101CEC0070BD012070470120FAE70120F8E70120C0
:101CFC00F6E700BF00200240001002407C390008CB
:101D0C000000002008000020014B1868704700BF3D
:101D1C000000002008B5FFF7F7FF044B5B68C3F326
:101D2C000223034AD35CD84008BD00BF0010024018
:101D3C007439000808B5FFF7E7FF044B5B68C3F381
:101D4C00C223034AD35CD84008BD00BF0010024038
:101D5C007439000830B4026A036A23F00103036289
:101D6C004568836923F073030C681C4322F002025C
:101D7C008B6813430B4A904206D0456084614A68D5
:101D8C004263036230BC704723F00803CA681A43ED
:101D9C0022F0040325F440754A692A438D691543E2
:101DAC00EBE700BF002C014030B4036A026A22F456
:101DBC00807202624468C26922F073020D68154396
:101DCC0023F400738A6843EA02230D4A904206D03A
:101DDC004460C5614A68C263036230BC704723F437
:101DEC000063CA6843EA022323F4806324F440545A
:101DFC004A6944EA02148A6944EA0214E8E700BF1B
:101E0C00002C014030B4036A026A22F48052026250
:101E1C004468C26922F4E6420D6842EA052223F4C2
:101E2C0000538D6843EA0533074DA84206D0446041
:101E3C00C2614A680264036230BC704724F4804477
:101E4C004D6944EA8514F2E7002C014010B4036A92
:101E5C00046A24F001040462846924F0F00C4CEA56
:101E6C00021223F00A030B438261036210BC704719
:101E7C0010B4036A046A24F010040462846924F424
:101E8C00704C4CEA023223F0A00343EA0113826146
:101E9C00036210BC7047836823F070030B4343F05C
:101EAC00070383607047000090F83D30DBB2012BD4
:101EBC0022D1022380F83D300368114A934210D09E
:101ECC00B3F1804F0DD0A2F59432934209D002F5B4
:101EDC008062934205D01A6842F001021A60002019
:101EEC0070479A6802F00702062A07D01A6842F077
:101EFC0001021A60002070470120704700207047D3
:101F0C00002C014090F83D30DBB2012B27D102238D
:101F1C0080F83D300268D36843F00103D360036856
:101F2C00114A934210D0B3F1804F0DD0A2F59432E8
:101F3C00934209D002F58062934205D01A6842F0B0
:101F4C0001021A60002070479A6802F00702062A04
:101F5C0007D01A6842F001021A6000207047012075
:101F6C0070470020704700BF002C0140704770473D
:101F7C00704710B5446A636A83420ED0A36A8342E9
:101F8C0014D0E36A83421AD0236B834220D02046BC
:101F9C0001F0F2FB0023237710BD01232377836923
:101FAC00002BF4D1012384F83E30F0E70223237791
:101FBC008369002BEBD1012384F83F30E7E704233E
:101FCC0023778369002BE2D1012384F84030DEE7CC
:101FDC00082323778369002BD9D1012384F841305E
:101FEC00D5E710B5446A636A83420BD0A36A834277
:101FFC0010D0E36A834210D0236B834204D10823B0
:10200C00237701E001232377204601F093FB002383
:10201C00237710BD02232377F6E704232377F3E716
:10202C00704710B5044603681A6912F0020F11D0FC
:10203C00DA6812F0020F0DD06FF002021A61012360
:10204C00037703689B6913F0030F70D0FFF790FFC1
:10205C000023237723681A6912F0040F12D0DA6870
:10206C0012F0040F0ED06FF004021A6102232377D2
:10207C0023689B6913F4407F5FD02046FFF778FFFD
:10208C000023237723681A6912F0080F12D0DA683C
:10209C0012F0080F0ED06FF008021A610423237798
:1020AC002368DB6913F0030F4ED02046FFF760FF67
:1020BC000023237723681A6912F0100F12D0DA6804
:1020CC0012F0100F0ED06FF010021A610823237754
:1020DC002368DB6913F4407F3DD02046FFF748FFAF
:1020EC000023237723681A6912F0010F03D0DA68F2
:1020FC0012F0010F36D123681A6912F0800F03D049
:10210C00DA6812F0800F34D123681A6912F0400F8C
:10211C0003D0DA6812F0400F32D123681A6912F03A
:10212C00200F03D0DA6812F0200F30D110BDFFF76A
:10213C001EFF204601F020FB8AE72046FFF717FF21
:10214C00204601F019FB9BE72046FFF710FF2046C5
:10215C0001F012FBACE72046FFF709FF204601F027
:10216C000BFBBDE76FF001021A61204600F0C8FEC0
:10217C00C1E76FF080021A61204600F013FCC3E740
:10218C006FF040021A612046FFF74AFFC5E76FF077
:10219C0020021A61204600F004FCC7E7704710B516
:1021AC00446A636A83420CD0A36A834213D0E36A05
:1021BC00834216D0236B834219D0012384F83D301F
:1021CC0003E00123237784F83E302046FFF7E6FF37
:1021DC000023237710BD02232377012384F83F309B
:1021EC00F3E704232377012384F84030EDE7082339
:1021FC002377012384F84130E7E7000003681B4A8A
:10220C0090420AD0B0F1804F07D0A2F594329042A0
:10221C0003D002F58062904203D123F070034A6828
:10222C001343124A90420AD0B0F1804F07D0A2F566
:10223C009432904203D002F58062904203D123F491
:10224C004073CA68134323F080034A691343036045
:10225C008B68C3620B688362044B984202D00123E3
:10226C00436170470B690363F9E700BF002C014021
:10227C0040B310B5044690F83D30F3B1022384F816
:10228C003D30214651F8040BFFF7B8FF012384F8C9
:10229C00463084F83E3084F83F3084F8403084F87F
:1022AC00413084F8423084F8433084F8443084F868
:1022BC00453084F83D30002010BD80F83C30FEF7EE
:1022CC0043F9DBE70120704740B310B5044690F8A2
:1022DC003D30F3B1022384F83D30214651F8040B14
:1022EC00FFF78CFF012384F8463084F83E3084F8E5
:1022FC003F3084F8403084F8413084F8423084F820
:10230C00433084F8443084F8453084F83D30002064
:10231C0010BD80F83C30FFF729FEDBE70120704749
:10232C0030B4036A026A22F01002026244688269C5
:10233C0022F4E6420D6842EA052223F020038D6860
:10234C0043EA05130C4DA84206D0446082614A68EA
:10235C008263036230BC704723F08003CD6843EA8C
:10236C00051323F0400324F440644D6944EA8504CA
:10237C008D6944EA8504E8E7002C014038B590F8F3
:10238C003C30012B66D004460D46012380F83C30CE
:10239C000C2A5AD8DFE802F0075959591B595959D8
:1023AC003059595944000068FFF7D4FC22689369EE
:1023BC0043F0080393612268936923F0040393614B
:1023CC002268936929690B43936100203EE0006801
:1023DC00FFF7A6FF2268936943F4006393612268B8
:1023EC00936923F48063936122689369296943EAB2
:1023FC0001239361002029E00068FFF7D5FC2268D7
:10240C00D36943F00803D3612268D36923F0040332
:10241C00D3612268D36929690B43D361002015E08D
:10242C000068FFF7EFFC2268D36943F40063D361C3
:10243C002268D36923F48063D3612268D369296944
:10244C0043EA0123D361002000E00120002384F83B
:10245C003C3038BD0220FCE710B4846824F47F4C77
:10246C0042EA03220A4342EA0C02826010BC704723
:10247C0090F83C30012B78D010B50446012380F83D
:10248C003C30022380F83D300268936823F47F438C
:10249C0023F0770393600B68602B4CD023D8402B30
:1024AC0054D011D8202B03D00AD80BB1102B05D146
:1024BC0019462068FFF7EFFC002028E0012026E0F9
:1024CC00302BF5D0012022E0502B0AD1CA68496884
:1024DC000068FFF7BBFC50212068FFF7DCFC0020F4
:1024EC0015E0012013E0B3F5805F3AD0B3F5005F3F
:1024FC0014D0702B37D1CB684A6889680068FFF715
:10250C00ABFF2268936843F07703936000200123AC
:10251C0084F83D30002384F83C3010BDCB684A6809
:10252C0089680068FFF798FF2268936843F480433A
:10253C0093600020EBE7CA6849680068FFF798FCD5
:10254C0060212068FFF7A7FC0020E0E7CA68496813
:10255C000068FFF77BFC40212068FFF79CFC002003
:10256C00D5E70020D3E70120D1E70220704701F026
:10257C001F014FF0010C0CFA01FC036A23EA0C0357
:10258C000362036A8A4013430362704770B50446C2
:10259C0016460D4600295AD190F83E00C0B20228CA
:1025AC0014BF00200120002840F00A81002D6AD1C0
:1025BC0094F83E20D2B2012A14BF00220122002A34
:1025CC0000F00081002E00F0FF80002B00F0FE8058
:1025DC00002D74D1022284F83E20626A82499162F5
:1025EC00626A8249D162626A81491163226834321B
:1025FC003146606AFEF712FE002840F0EB8022683C
:10260C00D36843F40073D360012229462068FFF796
:10261C00AEFF2368774A934200F0C2802368754A64
:10262C00934200F0C280B3F1804F00F0BE80A2F55F
:10263C009432934200F0B98002F58062934200F02C
:10264C00B4801A6842F001021A600020BBE0042931
:10265C0009D008290FD090F84100C0B2022814BF4D
:10266C00002001209FE790F83F00C0B2022814BF61
:10267C000020012097E790F84000C0B2022814BF58
:10268C00002001208FE7042D09D0082D0FD094F8DD
:10269C004120D2B2012A14BF002201228FE794F804
:1026AC003F20D2B2012A14BF0022012287E794F8FE
:1026BC004020D2B2012A14BF002201227FE7042D50
:1026CC0024D0082D3CD0022284F841200C2D7FD838
:1026DC0001A252F825F000BFE7250008DD2700080D
:1026EC00DD270008DD2700081F270008DD2700086C
:1026FC00DD270008DD27000853270008DD27000828
:10270C00DD270008DD27000881270008022284F855
:10271C003F20A26A34499162A26A3449D162A26A0A
:10272C0033491163226838323146A06AFEF776FDD0
:10273C00002851D12268D36843F48063D36063E7E7
:10274C00022284F84020E26A27499162E26A274912
:10275C00D162E26A2649116322683C323146E06A52
:10276C00FEF75CFD002839D12268D36843F400637E
:10277C00D36049E7226B1C499162226B1B49D162E1
:10278C00226B1B491163226840323146206BFEF7E5
:10279C0045FD28BB2268D36843F48053D36033E7EC
:1027AC005A6C42F400425A6438E79A6802F0070205
:1027BC00062A17D01A6842F001021A60002002E0C3
:1027CC00022000E0012070BD0120FCE70120FAE7A7
:1027DC000120F8E70120F6E70120F4E70120F2E7F9
:1027EC000120F0E70020EEE77F1F0008EF1F000834
:1027FC00AB210008002C014038B504460D460C29CD
:10280C006CD8DFE801F0076B6B6B2E6B6B6B376B67
:10281C006B6B40000268D36823F40073D360406A8A
:10282C00FEF75AFD002229462068FFF7A0FE236818
:10283C002B4A934230D02368196A41F2111211428B
:10284C0008D1196A40F24442114203D11A6822F0AD
:10285C0001021A60002D2ED1012384F83E30002095
:10286C003DE00268D36823F48063D360806AFEF78E
:10287C0033FDD7E70268D36823F40063D360C06AE2
:10288C00FEF72AFDCEE70268D36823F48053D360A9
:10289C00006BFEF721FDC5E7196A41F211121142D6
:1028AC00C9D1196A40F244421142C4D15A6C22F483
:1028BC0000425A64BFE7042D06D0082D09D001232D
:1028CC0084F8413000200AE0012384F83F300020D6
:1028DC0005E0012384F84030002000E0012038BDE1
:1028EC00002C014090F83C20012A2CD010B4034657
:1028FC00012280F83C20022280F83D2002685068BA
:10290C00946820F0700C086840EA0C0050601A685B
:10291C000E4882420AD0B2F1804F07D0A0F5943015
:10292C00824203D000F58060824204D124F08004FE
:10293C00496821439160012283F83D20002083F8EF
:10294C003C0010BC70470220704700BF002C0140B7
:10295C00024690F83C30012B21D0012380F83C300A
:10296C00CB6823F440738868034323F4806348687E
:10297C00034323F400630868034323F4805308697A
:10298C00034323F400534869034323F48043C96988
:10299C000B4311684B64002082F83C007047022006
:1029AC00704770477047026802F10C0353E8003F10
:1029BC0023F490730C3242E800310029F3D1026801
:1029CC0002F1140353E8003F23F00103143242E8F0
:1029DC0000310029F3D1036B012B05D0202380F8A3
:1029EC004230002303637047026802F10C0353E882
:1029FC00003F23F010030C3242E800310029F3D1E0
:102A0C00ECE790F84130DBB2212B01D0022070476B
:102A1C008368B3F5805F17D0036A5A1C02621A7878
:102A2C0003685A60C38C9BB2013B9BB2C3844BB905
:102A3C000268D36823F08003D3600268D36843F044
:102A4C004003D360002070470369002BE4D1036A74
:102A5C001B880268C3F308035360036A02330362E2
:102A6C00E0E7000010B504460268136923F44053F4
:102A7C00C1680B43136183680269134342691A43AB
:102A8C000168CB6823F4B05323F00C031343CB60E1
:102A9C000268536923F4407381690B4353610268E4
:102AAC00134B9A4220D0FFF735F9024602EB820213
:102ABC0002EB820263689B00B2FBF3F20D48A0FBB1
:102ACC0002314909642303FB11231B013233A0FBA0
:102ADC0003035B0903F0F00202EB011203F00F0396
:102AEC00216813448B6010BDFFF724F90246DDE723
:102AFC00003801401F85EB5160B310B5044690F8C7
:102B0C00413013B3242384F841302268D36823F472
:102B1C000053D3602046FFF7A5FF2268136923F406
:102B2C00904313612268536923F02A03536122688E
:102B3C00D36843F40053D36000206064202384F8EE
:102B4C00413084F84230606310BD80F84030FDF7AE
:102B5C0011FED7E701207047704708B50168CA68B5
:102B6C0022F04002CA60202280F84120FFF7F4FFD7
:102B7C00002008BD7047704708B5406A0023C38524
:102B8C00C384FFF7F8FF08BD704790F84230DBB202
:102B9C00222B69D18368B3F5805F4FD0826AB3F57D
:102BAC00805F04D0002B56D10369002B53D10368EE
:102BBC005B681370836A01338362C38D9BB2013BE4
:102BCC009BB2C385002B51D100B583B00268D3688A
:102BDC0023F02003D3600268D36823F48073D3609E
:102BEC000268536923F001035361202380F84230BB
:102BFC0000234363036B012B33D10023036302686F
:102C0C0002F10C0353E8003F23F010030C3242E8AE
:102C1C0000310029F3D103681A6812F0100F06D0A6
:102C2C00002201921A6801925B680193019B818DCD
:102C3C00FFF7AAFF002003B05DF804FB0269002A2D
:102C4C00ACD1826A03685B68C3F308031380836AA0
:102C5C0002338362B1E703685B6803F07F03137090
:102C6C00A8E7FFF787FFE5E70220704700207047D1
:102C7C0010B582B0044602681368D068516913F02D
:102C8C000F0F09D113F0200F0CD010F0200F09D02A
:102C9C002046FFF77AFF16E011F0010115D110F470
:102CAC00907F12D1216B012979D013F0800F03D0C2
:102CBC0010F0800F40F0138113F0400F03D010F090
:102CCC00400F40F0108102B010BD13F0010F06D080
:102CDC0010F4807F03D0626C42F00102626413F046
:102CEC00040F04D019B1626C42F00202626413F05A
:102CFC00020F04D019B1626C42F00402626413F04A
:102D0C00080F07D010F0200F00D119B1626C42F0FF
:102D1C0008026264626C002AD5D013F0200F02D036
:102D2C0010F0200F29D123685B6903F04003626C1B
:102D3C0012F0080F00D163B32046FFF734FE23686E
:102D4C005B6913F0400F20D0226802F1140353E8A2
:102D5C00003F23F04003143242E800310029F3D144
:102D6C00E36B73B1624A5A63E06BFEF7B5FA002865
:102D7C00A9D0E06B436B9847A5E72046FFF705FF0A
:102D8C00D1E72046FFF7F7FE9DE72046FFF7F3FE5D
:102D9C0099E72046FFF7EFFE0023636493E713F0F7
:102DAC00100F82D010F0100F3FF47FAF002301936F
:102DBC001368019353680193019B536913F0400FFF
:102DCC0051D0E26B13685B689BB2002B3FF47BAF76
:102DDC00A18D99427FF677AFE3859369202B37D08D
:102DEC00226802F10C0353E8003F23F480730C3289
:102DFC0042E800310029F3D1226802F1140353E8B0
:102E0C00003F23F00103143242E800310029F3D1D2
:102E1C00226802F1140353E8003F23F040031432FC
:102E2C0042E800310029F3D1202384F842300023FA
:102E3C002363226802F10C0353E8003F23F01003D4
:102E4C000C3242E800310029F3D1E06BFEF721FA95
:102E5C0002236363A18DE38D9BB2C91A89B220460C
:102E6C00FFF792FE2FE7A18DE38D9BB2C91A89B2B1
:102E7C00E38D9BB2002B3FF426AF00293FF423AF28
:102E8C00226802F10C0353E8003F23F490730C32D8
:102E9C0042E800300028F3D1226802F1140353E811
:102EAC00003F23F00103143242E800300028F3D134
:102EBC00202384F8423000232363226802F10C03A0
:102ECC0053E8003F23F010030C3242E80030002896
:102EDC00F3D1022363632046FFF756FEF3E6204648
:102EEC00FFF78FFDEFE62046FFF737FEEBE600BF5E
:102EFC00852B0008014B00221A6070470C03002040
:102F0C0008B5164B834200D008BD154B1B78012B1E
:102F1C0003D0144A136801331360134B1B78012B35
:102F2C0009D01BB90F4B1B68FA2B11D00F4A138811
:102F3C0001331380E8E70B4A1268642AF1D1FFF7DA
:102F4C00D9FF094B00221A70094B01221A70EDE7C8
:102F5C00FFF7D0FF074B01221A70E7E7E4010020CE
:102F6C00B30400200C030020900400200A0300206E
:102F7C0008030020B204002000B583B002460949C2
:102F8C0001230B6000238B60CB6008230B6101AB2A
:102F9C000548FDF711FE0A20FDF7A0FC03B05DF813
:102FAC0004FB00BF700300207801002000B583B043
:102FBC000246094902230B6000238B60CB60082377
:102FCC000B6101AB0548FDF7F7FD0A20FDF786FC08
:102FDC0003B05DF804FB00BF58030020780100200B
:102FEC0000B583B00246094903230B6000238B60B4
:102FFC00CB6008230B6101AB0548FDF7DDFD0A2012
:10300C00FDF76CFC03B05DF804FB00BF400300202F
:10301C007801002000B583B00246094904230B60F7
:10302C0000238B60CB6008230B6101AB0548FDF7D7
:10303C00C3FD0A20FDF752FC03B05DF804FB00BF92
:10304C00280300207801002000B583B0024609490E
:10305C0005230B6000238B60CB6008230B6101AB55
:10306C000548FDF7A9FD0A20FDF738FC03B05DF813
:10307C0004FB00BF100300207801002010B58AB0BB
:10308C0001220892002306930792C022009201931A
:10309C004FF6E0720292039305930493064C694633
:1030AC002046FDF7D5FC2046FDF758FD02212046B1
:1030BC00FDF7ACFE0AB010BD78010020014B0122D7
:1030CC001A707047B204002000B58BB001AB03AA94
:1030DC000021FDF7E6FD80211748FEF7FFFA174B9C
:1030EC001A780132164B83FB02135B1003EB83033C
:1030FC00D31ADBB2134A1278D2B29A4219D00F48C3
:10310C0002789DF804C0104902EB420201F802C09B
:10311C0002789DF805C002EB42020A4482F802C014
:10312C0002789DF806C002EB4202114481F801C0FE
:10313C0003700BB05DF804FB000801409204002002
:10314C00676666669304002094040020A14B1B78EC
:10315C00012B6ED0A04B1B78012B00F08A8070B530
:10316C0082B09E4B1B78012B00F0A1809C4B1A78EF
:10317C00D2B29C4B1B78DBB29A4200F0CB809849C0
:10318C000B78994A03EB4303D018D25A8378ADF8E5
:10319C0004208DF806300A780132944B83FB02032D
:1031AC005B1003EB8303D31ADBB20B709DF8044066
:1031BC00013CE4B2042C00F2AD809DF80630012BEA
:1031CC0040F0A8808A4B1B789C4204D0894B1B781A
:1031DC009C4240F09F80884B1B5D012B40F09A80F5
:1031EC00FDF776FB854B53F82430C31AB3F5967F65
:1031FC00C0F09080824A1378013313707E4B00220A
:10320C001A55804B1B78002B40F084807E4B1B782A
:10321C004BB97E4B1B78042B05D87B4A01211170CE
:10322C000B447A4A1370FFF765FE764B01221A7035
:10323C0070E00023674A1370724A1370664A137069
:10324C00684A1370664A1370FF2269490A7069490B
:10325C000A706D4A137006E000226749CA546C4923
:10326C00CA540133DBB2042BF6D95C4B01221A7021
:10327C0070470023584A1370624A1370594A1370EE
:10328C00574A1370FF225A490A705A490A705E4A0B
:10329C00137006E000225849CA545D49CA540133E0
:1032AC00DBB2042BF6D94D4B01221A7070474B4BF5
:1032BC0000221A70554B1B78042B44D9554B1B78A4
:1032CC00D3B1FDF705FB544B1B68C01A40F6B7335E
:1032DC0098421FD900234F4A13704C4A13704A4A24
:1032EC001370474A13701EE0434A0221D154484AD6
:1032FC000A21D1540133DBB2042BF5D9FF233C4A0C
:10330C0013703C4A1370434B01221A70FDF7E0FA1C
:10331C00414B186002B070BD00223749CA543C4979
:10332C00CA540133DBB2042BF6D9FF23304A137095
:10333C00304A137000232B4A1370294A1370274B01
:10334C0001221A70E6E700F0E7F8344BA3FB0023E8
:10335C0023F0030202EB9303C01A254B18700024D0
:10336C0000F0DAF82D4BA3FB002323F0030202EB51
:10337C009303C01AC3B21F4A13700134E4B21C4A3F
:10338C001578AB4201D1132CEAD9AB4217D01A4BAA
:10339C0001225A55174E31785A54FDF799FA174CA9
:1033AC0044F825003578FDF793FA44F825000023FE
:1033BC000C4A13700A4A1370FFF79CFDAAE76A1CAB
:1033CC000A4B83FB02135B1003EB8303D31A094AEA
:1033DC001370DCE7B20400200803002091040020E5
:1033EC009304002092040020940400206766666613
:1033FC00100000200F000020A40400207C040020FA
:10340C00B1040020900400207804002079040020EE
:10341C00AC0400208C03002088030020CDCCCCCC45
:10342C0070B5FFF793FE314B1B78314E3370314D35
:10343C002B70314C23703148037031490B70314A79
:10344C001278F270EA70E270C270CA70012B30D040
:10345C002D4BFF221A7000225A709A702B4D2B782C
:10346C00274843702A4C23788370FFF785FD6B78CF
:10347C002248437063788370FFF798FDAB781E4841
:10348C004370A3788370FFF7ABFDEB78194843705A
:10349C00E3788370FFF7BEFD2B79154843702379D1
:1034AC008370FFF7D1FD00F089F90028FBD00023D1
:1034BC0015E0154B00221A705A70FF229A70CDE756
:1034CC00144903EB430201EB020C0F48B0F800E087
:1034DC00807821F802E08CF802000133DBB23F2B3C
:1034EC00EED940210B4800F071F970BD110000209D
:1034FC009003002098030020A0030020A8030020C4
:10350C00B0030020790400200C000020A40400204B
:10351C00AC040020B803002008B50A4B1B685B6A9A
:10352C00642003FB00F000F05BF900F063F9064A3D
:10353C0082FB0032C317C3EB620303EB8303C31A92
:10354C00D8B208BD2C0200206766666630B50278DA
:10355C00164B9D5C42789C5C827813F802E0002349
:10356C0080220CE04FF0090C0FE0092014E04FF022
:10357C00090C03F1100021F810C052080133072B7D
:10358C0012DC2A42EED04FF0150C03F1080021F8A2
:10359C0010C02242E9D0152021F8130012EA0E0FB8
:1035AC00E5D04FF0150CE4E730BD00BFA0390008A2
:1035BC002DE9F04107460E46006809681468E41AC4
:1035CC00146007E0C51C01F13008FFF7BFFF41464E
:1035DC00284623465C1E002BF4D138603160BDE8D0
:1035EC00F08138B50D4603EB43031C012246002144
:1035FC00286800F01BF92B6823442B6038BD0000B1
:10360C0030B583B001901E4B1D68ADB10C461D4BFF
:10361C001A68CAB1019BCB1A1B111B4901FB03F39E
:10362C00934228BF1346174A01A91848A847019B83
:10363C00A34219D303B030BD00211548FFF7DCF8C5
:10364C00144B00221A60F5E7019BCB1A1B11A2F157
:10365C00553202FB03F3002201A91046FFF7C1FF0C
:10366C00074B00221A60E5E7E41A2411064B04FB11
:10367C0003F3002201A91046FFF7B3FFDAE700BFFE
:10368C00BC040020B4040020ABAAAAAAB8040020F1
:10369C0074020020001000201F4B1B6803B1704700
:1036AC00F0B583B01C4B01241C601C4D28601C4ED3
:1036BC0031601C4F3A601C4C01940223002201A97A
:1036CC001046FFF78EFF3A6804F53464019BE31A49
:1036DC001B11164901FB03F32D68934228BF1346B7
:1036EC003A4601A93046A847019AA24208D34FF4A2
:1036FC00B4630D4A00210E48FEF748FF03B0F0BD3D
:10370C00A31A1B11094A02FB03F3002201A910465C
:10371C00FFF767FFEBE700BF00100020BC040020A0
:10372C00B8040020B4040020C0040020ABAAAAAA4C
:10373C007402002008B50D4B984206D00B4B9842F2
:10374C0007D00B4B984208D008BD037F012BF5D155
:10375C00FAE7037F022BF4D1F6E7037F012BF3D1B9
:10376C000449A1F5B460FFF74BFFEDE7E40100203D
:10377C0074020020600A002008B50D4B984206D058
:10378C000B4B984207D00B4B984208D008BD037FD7
:10379C00012BF5D1FAE7037F022BF4D1F6E7037F77
:1037AC00012BF3D10449A1F5B460FFF729FFEDE734
:1037BC00E40100207402002000100020024B186865
:1037CC00B0FA80F0400970470010002008B50A4696
:1037DC0001460248FFF760FF08BD00BFBD35000879
:1037EC000022034B1B68C3F89800C3F89C20704759
:1037FC00140000200A4B0B48196810B5D1F898300A
:10380C00D1F89C405843084A02FB0400A3FB023247
:10381C00013340EB0200C1E9263020F0004010BD1E
:10382C00140000202DF451582D7F954C0346024472
:10383C00934200D1704703F8011BF9E770B50026DD
:10384C000C4D0D4C641BA410A64209D100F080F85D
:10385C0000260A4D0A4C641BA410A64205D170BD6B
:10386C0055F8043B98470136EEE755F8043B98476A
:10387C000136F2E7A03A0008A03A0008A03A000886
:10388C00A83A000870477047024B13B1024800F089
:10389C0005B8704700000000B53800080023014649
:1038AC001A46184600F014B838B5074D074C641B7F
:1038BC00A4101CB9BDE8384000F050B8013C55F8D4
:1038CC0024309847F5E700BFA83A0008AC3A000846
:1038DC002DE9F047DFF86CA00646DAF800009846B0
:1038EC000F469146FFF7CEFF174B1C680CB9174CCF
:1038FC001C606568DAF800001F2D05DDFFF7C3FFBB
:10390C004FF0FF30BDE8F0879EB1012204EB85013A
:10391C00C1F88890D4F88831AA401343C4F8883190
:10392C00022EC1F8088102BFD4F88C311343C4F8BD
:10393C008C316B1C0235636044F82570FFF7A3FFD4
:10394C000020DFE758010020401100204411002026
:10395C00F8B500BFF8BC08BC9E467047F8B500BF70
:08396C00F8BC08BC9E46704740
:103974000000000001020304000000000000000039
:1039840001020304060708090102000002030405FA
:10399400060708090A0B0C0D0E0F1010000000009A
:1039A400000000000000000001010101010101010B
:1039B40002020202020203030303040404040505D1
:1039C40005050606060707070808080909090A0A7B
:1039D4000B0B0B0C0C0D0D0E0E0F0F101011111202
:1039E400121313141415151617171818191A1A1B6D
:1039F4001C1C1D1E1E1F20202122232324252626B5
:103A04002728292A2A2B2C2D2E2F2F3031323334DC
:103A14003536373838393A3B3C3D3E3F40414243E6
:103A240044454647494A4B4C4D4E4F5051525455CC
:103A3400565758595B5C5D5E5F6162636466676894
:103A4400696B6C6D6F70717374757778797B7C7E3C
:103A54007F808283858688898B8C8E8F91929495C2
:103A640097989A9B9D9EA0A2A3A5A6A8AAABADAF2A
:103A7400B0B2B4B5B7B9BABCBEC0C1C3C5C7C8CA71
:103A8400CCCECFD1D3D5D7D9DADCDEE0E2E4E6E898
:0C3A9400E9EBEDEFF1F3F5F7F9FBFDFFB6
:083AA00095380008310100080F
:043AA8000D01000804
:103AAC000024F4000100000010000000FF0000FFE3
:103ABC00FF0100001800002000000000041000208E
:103ACC006C100020D410002000000000000000004A
:103ADC0000000000000000000000000000000000DA
:103AEC0000000000000000000000000000000000CA
:103AFC0000000000000000000000000000000000BA
:103B0C0000000000000000000000000000000000A9
:103B1C000000000000000000000000000000000099
:103B2C000000000000000000000000000000000089
:103B3C000000000000000000000000000000000079
:103B4C000000000000000000000000000000000069
:103B5C0001000000000000000E33CDAB34126DE606
:103B6C00ECDE05000B00000000000000000000006F
:103B7C000000000000000000000000000000000039
:103B8C000000000000000000000000000000000029
:103B9C000000000000000000000000000000000019
:103BAC000000000000000000000000000000000009
:103BBC0000000000000000000000000000000000F9
:103BCC0000000000000000000000000000000000E9
:103BDC0000000000000000000000000000000000D9
:103BEC0000000000000000000000000000000000C9
:0C3BFC0000000000000000003C11002050
:0400000508000809DE
:00000001FF
